{
  "_format": "hh-sol-artifact-1",
  "contractName": "VCRegistry",
  "sourceName": "contracts/VCRegistry.sol",
  "abi": [
    {
      "anonymous": false,
      "inputs": [
        {
          "indexed": true,
          "internalType": "bytes32",
          "name": "credentialId",
          "type": "bytes32"
        },
        {
          "indexed": false,
          "internalType": "string",
          "name": "ipfsCid",
          "type": "string"
        },
        {
          "indexed": true,
          "internalType": "address",
          "name": "issuer",
          "type": "address"
        },
        {
          "indexed": false,
          "internalType": "string",
          "name": "subjectDid",
          "type": "string"
        }
      ],
      "name": "CredentialIssued",
      "type": "event"
    },
    {
      "anonymous": false,
      "inputs": [
        {
          "indexed": true,
          "internalType": "bytes32",
          "name": "credentialId",
          "type": "bytes32"
        }
      ],
      "name": "CredentialRevoked",
      "type": "event"
    },
    {
      "inputs": [
        {
          "internalType": "bytes32",
          "name": "",
          "type": "bytes32"
        }
      ],
      "name": "credentials",
      "outputs": [
        {
          "internalType": "string",
          "name": "ipfsCid",
          "type": "string"
        },
        {
          "internalType": "address",
          "name": "issuer",
          "type": "address"
        },
        {
          "internalType": "string",
          "name": "subjectDid",
          "type": "string"
        },
        {
          "internalType": "uint256",
          "name": "timestamp",
          "type": "uint256"
        },
        {
          "internalType": "bool",
          "name": "revoked",
          "type": "bool"
        }
      ],
      "stateMutability": "view",
      "type": "function"
    },
    {
      "inputs": [
        {
          "internalType": "bytes32",
          "name": "credentialId",
          "type": "bytes32"
        }
      ],
      "name": "getCredential",
      "outputs": [
        {
          "components": [
            {
              "internalType": "string",
              "name": "ipfsCid",
              "type": "string"
            },
            {
              "internalType": "address",
              "name": "issuer",
              "type": "address"
            },
            {
              "internalType": "string",
              "name": "subjectDid",
              "type": "string"
            },
            {
              "internalType": "uint256",
              "name": "timestamp",
              "type": "uint256"
            },
            {
              "internalType": "bool",
              "name": "revoked",
              "type": "bool"
            }
          ],
          "internalType": "struct VCRegistry.CredentialRecord",
          "name": "",
          "type": "tuple"
        }
      ],
      "stateMutability": "view",
      "type": "function"
    },
    {
      "inputs": [
        {
          "internalType": "address",
          "name": "issuer",
          "type": "address"
        }
      ],
      "name": "getIssuerCredentials",
      "outputs": [
        {
          "internalType": "bytes32[]",
          "name": "",
          "type": "bytes32[]"
        }
      ],
      "stateMutability": "view",
      "type": "function"
    },
    {
      "inputs": [
        {
          "internalType": "string",
          "name": "subjectDid",
          "type": "string"
        }
      ],
      "name": "getSubjectCredentials",
      "outputs": [
        {
          "internalType": "bytes32[]",
          "name": "",
          "type": "bytes32[]"
        }
      ],
      "stateMutability": "view",
      "type": "function"
    },
    {
      "inputs": [
        {
          "internalType": "bytes32",
          "name": "credentialId",
          "type": "bytes32"
        },
        {
          "internalType": "string",
          "name": "ipfsCid",
          "type": "string"
        },
        {
          "internalType": "string",
          "name": "subjectDid",
          "type": "string"
        }
      ],
      "name": "issueCredential",
      "outputs": [],
      "stateMutability": "nonpayable",
      "type": "function"
    },
    {
      "inputs": [
        {
          "internalType": "address",
          "name": "",
          "type": "address"
        },
        {
          "internalType": "uint256",
          "name": "",
          "type": "uint256"
        }
      ],
      "name": "issuerCredentials",
      "outputs": [
        {
          "internalType": "bytes32",
          "name": "",
          "type": "bytes32"
        }
      ],
      "stateMutability": "view",
      "type": "function"
    },
    {
      "inputs": [
        {
          "internalType": "bytes32",
          "name": "credentialId",
          "type": "bytes32"
        }
      ],
      "name": "revokeCredential",
      "outputs": [],
      "stateMutability": "nonpayable",
      "type": "function"
    },
    {
      "inputs": [
        {
          "internalType": "string",
          "name": "",
          "type": "string"
        },
        {
          "internalType": "uint256",
          "name": "",
          "type": "uint256"
        }
      ],
      "name": "subjectCredentials",
      "outputs": [
        {
          "internalType": "bytes32",
          "name": "",
          "type": "bytes32"
        }
      ],
      "stateMutability": "view",
      "type": "function"
    }
  ],
  "bytecode": "0x608060405234801561001057600080fd5b506116f6806100206000396000f3fe608060405234801561001057600080fd5b50600436106100875760003560e01c8063ca6eec781161005b578063ca6eec7814610150578063d0f80e771461016c578063d1be488314610188578063d8202ffb146101b857610087565b806209fb471461008c57806318171276146100bc5780631abac44b146100ec578063299d03481461011c575b600080fd5b6100a660048036038101906100a19190610c7d565b6101e8565b6040516100b39190610cf2565b60405180910390f35b6100d660048036038101906100d19190610d0d565b61022f565b6040516100e39190610e14565b60405180910390f35b61010660048036038101906101019190610e94565b6102a5565b6040516101139190610cf2565b60405180910390f35b61013660048036038101906101319190610f00565b6102d6565b604051610147959493929190610fe5565b60405180910390f35b61016a60048036038101906101659190610f00565b610449565b005b61018660048036038101906101819190611046565b6105ad565b005b6101a2600480360381019061019d9190610f00565b610844565b6040516101af91906111c5565b60405180910390f35b6101d260048036038101906101cd91906111e7565b610a0f565b6040516101df9190610e14565b60405180910390f35b600282805160208101820180518482526020830160208501208183528095505050505050818154811061021a57600080fd5b90600052602060002001600091509150505481565b60606002826040516102419190611250565b908152602001604051809103902080548060200260200160405190810160405280929190818152602001828054801561029957602002820191906000526020600020905b815481526020019060010190808311610285575b50505050509050919050565b600160205281600052604060002081815481106102c157600080fd5b90600052602060002001600091509150505481565b60006020528060005260406000206000915090508060000180546102f990611296565b80601f016020809104026020016040519081016040528092919081815260200182805461032590611296565b80156103725780601f1061034757610100808354040283529160200191610372565b820191906000526020600020905b81548152906001019060200180831161035557829003601f168201915b5050505050908060010160009054906101000a900473ffffffffffffffffffffffffffffffffffffffff16908060020180546103ad90611296565b80601f01602080910402602001604051908101604052809291908181526020018280546103d990611296565b80156104265780601f106103fb57610100808354040283529160200191610426565b820191906000526020600020905b81548152906001019060200180831161040957829003601f168201915b5050505050908060030154908060040160009054906101000a900460ff16905085565b3373ffffffffffffffffffffffffffffffffffffffff1660008083815260200190815260200160002060010160009054906101000a900473ffffffffffffffffffffffffffffffffffffffff1673ffffffffffffffffffffffffffffffffffffffff16146104ec576040517f08c379a00000000000000000000000000000000000000000000000000000000081526004016104e390611313565b60405180910390fd5b60008082815260200190815260200160002060040160009054906101000a900460ff161561054f576040517f08c379a00000000000000000000000000000000000000000000000000000000081526004016105469061137f565b60405180910390fd5b600160008083815260200190815260200160002060040160006101000a81548160ff021916908315150217905550807f3cc2375f3fc7711ba27361cde93880f578742f9f050acee766bed662d117ba7260405160405180910390a250565b600073ffffffffffffffffffffffffffffffffffffffff1660008085815260200190815260200160002060010160009054906101000a900473ffffffffffffffffffffffffffffffffffffffff1673ffffffffffffffffffffffffffffffffffffffff1614610651576040517f08c379a0000000000000000000000000000000000000000000000000000000008152600401610648906113eb565b60405180910390fd5b6040518060a001604052808381526020013373ffffffffffffffffffffffffffffffffffffffff1681526020018281526020014281526020016000151581525060008085815260200190815260200160002060008201518160000190816106b891906115b7565b5060208201518160010160006101000a81548173ffffffffffffffffffffffffffffffffffffffff021916908373ffffffffffffffffffffffffffffffffffffffff160217905550604082015181600201908161071591906115b7565b506060820151816003015560808201518160040160006101000a81548160ff021916908315150217905550905050600160003373ffffffffffffffffffffffffffffffffffffffff1673ffffffffffffffffffffffffffffffffffffffff1681526020019081526020016000208390806001815401808255809150506001900390600052602060002001600090919091909150556002816040516107b99190611250565b90815260200160405180910390208390806001815401808255809150506001900390600052602060002001600090919091909150553373ffffffffffffffffffffffffffffffffffffffff16837ff46401f27d16db0bfc78410ed5fdf6defaf505a4a23b1d2ff92ca6c7230c86058484604051610837929190611689565b60405180910390a3505050565b61084c610aa6565b6000808381526020019081526020016000206040518060a001604052908160008201805461087990611296565b80601f01602080910402602001604051908101604052809291908181526020018280546108a590611296565b80156108f25780601f106108c7576101008083540402835291602001916108f2565b820191906000526020600020905b8154815290600101906020018083116108d557829003601f168201915b505050505081526020016001820160009054906101000a900473ffffffffffffffffffffffffffffffffffffffff1673ffffffffffffffffffffffffffffffffffffffff1673ffffffffffffffffffffffffffffffffffffffff16815260200160028201805461096190611296565b80601f016020809104026020016040519081016040528092919081815260200182805461098d90611296565b80156109da5780601f106109af576101008083540402835291602001916109da565b820191906000526020600020905b8154815290600101906020018083116109bd57829003601f168201915b50505050508152602001600382015481526020016004820160009054906101000a900460ff1615151515815250509050919050565b6060600160008373ffffffffffffffffffffffffffffffffffffffff1673ffffffffffffffffffffffffffffffffffffffff168152602001908152602001600020805480602002602001604051908101604052809291908181526020018280548015610a9a57602002820191906000526020600020905b815481526020019060010190808311610a86575b50505050509050919050565b6040518060a0016040528060608152602001600073ffffffffffffffffffffffffffffffffffffffff16815260200160608152602001600081526020016000151581525090565b6000604051905090565b600080fd5b600080fd5b600080fd5b600080fd5b6000601f19601f8301169050919050565b7f4e487b7100000000000000000000000000000000000000000000000000000000600052604160045260246000fd5b610b5482610b0b565b810181811067ffffffffffffffff82111715610b7357610b72610b1c565b5b80604052505050565b6000610b86610aed565b9050610b928282610b4b565b919050565b600067ffffffffffffffff821115610bb257610bb1610b1c565b5b610bbb82610b0b565b9050602081019050919050565b82818337600083830152505050565b6000610bea610be584610b97565b610b7c565b905082815260208101848484011115610c0657610c05610b06565b5b610c11848285610bc8565b509392505050565b600082601f830112610c2e57610c2d610b01565b5b8135610c3e848260208601610bd7565b91505092915050565b6000819050919050565b610c5a81610c47565b8114610c6557600080fd5b50565b600081359050610c7781610c51565b92915050565b60008060408385031215610c9457610c93610af7565b5b600083013567ffffffffffffffff811115610cb257610cb1610afc565b5b610cbe85828601610c19565b9250506020610ccf85828601610c68565b9150509250929050565b6000819050919050565b610cec81610cd9565b82525050565b6000602082019050610d076000830184610ce3565b92915050565b600060208284031215610d2357610d22610af7565b5b600082013567ffffffffffffffff811115610d4157610d40610afc565b5b610d4d84828501610c19565b91505092915050565b600081519050919050565b600082825260208201905092915050565b6000819050602082019050919050565b610d8b81610cd9565b82525050565b6000610d9d8383610d82565b60208301905092915050565b6000602082019050919050565b6000610dc182610d56565b610dcb8185610d61565b9350610dd683610d72565b8060005b83811015610e07578151610dee8882610d91565b9750610df983610da9565b925050600181019050610dda565b5085935050505092915050565b60006020820190508181036000830152610e2e8184610db6565b905092915050565b600073ffffffffffffffffffffffffffffffffffffffff82169050919050565b6000610e6182610e36565b9050919050565b610e7181610e56565b8114610e7c57600080fd5b50565b600081359050610e8e81610e68565b92915050565b60008060408385031215610eab57610eaa610af7565b5b6000610eb985828601610e7f565b9250506020610eca85828601610c68565b9150509250929050565b610edd81610cd9565b8114610ee857600080fd5b50565b600081359050610efa81610ed4565b92915050565b600060208284031215610f1657610f15610af7565b5b6000610f2484828501610eeb565b91505092915050565b600081519050919050565b600082825260208201905092915050565b60005b83811015610f67578082015181840152602081019050610f4c565b60008484015250505050565b6000610f7e82610f2d565b610f888185610f38565b9350610f98818560208601610f49565b610fa181610b0b565b840191505092915050565b610fb581610e56565b82525050565b610fc481610c47565b82525050565b60008115159050919050565b610fdf81610fca565b82525050565b600060a0820190508181036000830152610fff8188610f73565b905061100e6020830187610fac565b81810360408301526110208186610f73565b905061102f6060830185610fbb565b61103c6080830184610fd6565b9695505050505050565b60008060006060848603121561105f5761105e610af7565b5b600061106d86828701610eeb565b935050602084013567ffffffffffffffff81111561108e5761108d610afc565b5b61109a86828701610c19565b925050604084013567ffffffffffffffff8111156110bb576110ba610afc565b5b6110c786828701610c19565b9150509250925092565b600082825260208201905092915050565b60006110ed82610f2d565b6110f781856110d1565b9350611107818560208601610f49565b61111081610b0b565b840191505092915050565b61112481610e56565b82525050565b61113381610c47565b82525050565b61114281610fca565b82525050565b600060a083016000830151848203600086015261116582826110e2565b915050602083015161117a602086018261111b565b506040830151848203604086015261119282826110e2565b91505060608301516111a7606086018261112a565b5060808301516111ba6080860182611139565b508091505092915050565b600060208201905081810360008301526111df8184611148565b905092915050565b6000602082840312156111fd576111fc610af7565b5b600061120b84828501610e7f565b91505092915050565b600081905092915050565b600061122a82610f2d565b6112348185611214565b9350611244818560208601610f49565b80840191505092915050565b600061125c828461121f565b915081905092915050565b7f4e487b7100000000000000000000000000000000000000000000000000000000600052602260045260246000fd5b600060028204905060018216806112ae57607f821691505b6020821081036112c1576112c0611267565b5b50919050565b7f4f6e6c79206973737565722063616e207265766f6b6500000000000000000000600082015250565b60006112fd601683610f38565b9150611308826112c7565b602082019050919050565b6000602082019050818103600083015261132c816112f0565b9050919050565b7f416c7265616479207265766f6b65640000000000000000000000000000000000600082015250565b6000611369600f83610f38565b915061137482611333565b602082019050919050565b600060208201905081810360008301526113988161135c565b9050919050565b7f43726564656e7469616c20616c72656164792065786973747300000000000000600082015250565b60006113d5601983610f38565b91506113e08261139f565b602082019050919050565b60006020820190508181036000830152611404816113c8565b9050919050565b60008190508160005260206000209050919050565b60006020601f8301049050919050565b600082821b905092915050565b60006008830261146d7fffffffffffffffffffffffffffffffffffffffffffffffffffffffffffffffff82611430565b6114778683611430565b95508019841693508086168417925050509392505050565b6000819050919050565b60006114b46114af6114aa84610c47565b61148f565b610c47565b9050919050565b6000819050919050565b6114ce83611499565b6114e26114da826114bb565b84845461143d565b825550505050565b600090565b6114f76114ea565b6115028184846114c5565b505050565b5b818110156115265761151b6000826114ef565b600181019050611508565b5050565b601f82111561156b5761153c8161140b565b61154584611420565b81016020851015611554578190505b61156861156085611420565b830182611507565b50505b505050565b600082821c905092915050565b600061158e60001984600802611570565b1980831691505092915050565b60006115a7838361157d565b9150826002028217905092915050565b6115c082610f2d565b67ffffffffffffffff8111156115d9576115d8610b1c565b5b6115e38254611296565b6115ee82828561152a565b600060209050601f831160018114611621576000841561160f578287015190505b611619858261159b565b865550611681565b601f19841661162f8661140b565b60005b8281101561165757848901518255600182019150602085019450602081019050611632565b868310156116745784890151611670601f89168261157d565b8355505b6001600288020188555050505b505050505050565b600060408201905081810360008301526116a38185610f73565b905081810360208301526116b78184610f73565b9050939250505056fea2646970667358221220dcde4188fa130c2a6d03026bdbe2b84521ec84df0bcc2581747f68d5b951705164736f6c63430008130033",
  "linkReferences": {},
  "deployedLinkReferences": {}
}